{
  "contractName": "VolcanoCoin",
  "abi": [
    {
      "inputs": [],
      "stateMutability": "nonpayable",
      "type": "constructor"
    },
    {
      "anonymous": false,
      "inputs": [
        {
          "indexed": true,
          "internalType": "address",
          "name": "owner",
          "type": "address"
        },
        {
          "indexed": true,
          "internalType": "address",
          "name": "spender",
          "type": "address"
        },
        {
          "indexed": false,
          "internalType": "uint256",
          "name": "value",
          "type": "uint256"
        }
      ],
      "name": "Approval",
      "type": "event"
    },
    {
      "anonymous": false,
      "inputs": [
        {
          "indexed": true,
          "internalType": "address",
          "name": "previousOwner",
          "type": "address"
        },
        {
          "indexed": true,
          "internalType": "address",
          "name": "newOwner",
          "type": "address"
        }
      ],
      "name": "OwnershipTransferred",
      "type": "event"
    },
    {
      "anonymous": false,
      "inputs": [
        {
          "indexed": false,
          "internalType": "uint256",
          "name": "_totalSupply",
          "type": "uint256"
        }
      ],
      "name": "TotalSupply",
      "type": "event"
    },
    {
      "anonymous": false,
      "inputs": [
        {
          "indexed": false,
          "internalType": "uint256",
          "name": "_amount",
          "type": "uint256"
        },
        {
          "indexed": false,
          "internalType": "address",
          "name": "_recipientAddress",
          "type": "address"
        }
      ],
      "name": "Transfer",
      "type": "event"
    },
    {
      "anonymous": false,
      "inputs": [
        {
          "indexed": true,
          "internalType": "address",
          "name": "from",
          "type": "address"
        },
        {
          "indexed": true,
          "internalType": "address",
          "name": "to",
          "type": "address"
        },
        {
          "indexed": false,
          "internalType": "uint256",
          "name": "value",
          "type": "uint256"
        }
      ],
      "name": "Transfer",
      "type": "event"
    },
    {
      "inputs": [
        {
          "internalType": "address",
          "name": "owner",
          "type": "address"
        },
        {
          "internalType": "address",
          "name": "spender",
          "type": "address"
        }
      ],
      "name": "allowance",
      "outputs": [
        {
          "internalType": "uint256",
          "name": "",
          "type": "uint256"
        }
      ],
      "stateMutability": "view",
      "type": "function",
      "constant": true
    },
    {
      "inputs": [
        {
          "internalType": "address",
          "name": "spender",
          "type": "address"
        },
        {
          "internalType": "uint256",
          "name": "amount",
          "type": "uint256"
        }
      ],
      "name": "approve",
      "outputs": [
        {
          "internalType": "bool",
          "name": "",
          "type": "bool"
        }
      ],
      "stateMutability": "nonpayable",
      "type": "function"
    },
    {
      "inputs": [
        {
          "internalType": "address",
          "name": "account",
          "type": "address"
        }
      ],
      "name": "balanceOf",
      "outputs": [
        {
          "internalType": "uint256",
          "name": "",
          "type": "uint256"
        }
      ],
      "stateMutability": "view",
      "type": "function",
      "constant": true
    },
    {
      "inputs": [],
      "name": "decimals",
      "outputs": [
        {
          "internalType": "uint8",
          "name": "",
          "type": "uint8"
        }
      ],
      "stateMutability": "view",
      "type": "function",
      "constant": true
    },
    {
      "inputs": [
        {
          "internalType": "address",
          "name": "spender",
          "type": "address"
        },
        {
          "internalType": "uint256",
          "name": "subtractedValue",
          "type": "uint256"
        }
      ],
      "name": "decreaseAllowance",
      "outputs": [
        {
          "internalType": "bool",
          "name": "",
          "type": "bool"
        }
      ],
      "stateMutability": "nonpayable",
      "type": "function"
    },
    {
      "inputs": [
        {
          "internalType": "address",
          "name": "spender",
          "type": "address"
        },
        {
          "internalType": "uint256",
          "name": "addedValue",
          "type": "uint256"
        }
      ],
      "name": "increaseAllowance",
      "outputs": [
        {
          "internalType": "bool",
          "name": "",
          "type": "bool"
        }
      ],
      "stateMutability": "nonpayable",
      "type": "function"
    },
    {
      "inputs": [],
      "name": "name",
      "outputs": [
        {
          "internalType": "string",
          "name": "",
          "type": "string"
        }
      ],
      "stateMutability": "view",
      "type": "function",
      "constant": true
    },
    {
      "inputs": [],
      "name": "owner",
      "outputs": [
        {
          "internalType": "address",
          "name": "",
          "type": "address"
        }
      ],
      "stateMutability": "view",
      "type": "function",
      "constant": true
    },
    {
      "inputs": [],
      "name": "renounceOwnership",
      "outputs": [],
      "stateMutability": "nonpayable",
      "type": "function"
    },
    {
      "inputs": [],
      "name": "symbol",
      "outputs": [
        {
          "internalType": "string",
          "name": "",
          "type": "string"
        }
      ],
      "stateMutability": "view",
      "type": "function",
      "constant": true
    },
    {
      "inputs": [],
      "name": "totalSupply",
      "outputs": [
        {
          "internalType": "uint256",
          "name": "",
          "type": "uint256"
        }
      ],
      "stateMutability": "view",
      "type": "function",
      "constant": true
    },
    {
      "inputs": [
        {
          "internalType": "address",
          "name": "sender",
          "type": "address"
        },
        {
          "internalType": "address",
          "name": "recipient",
          "type": "address"
        },
        {
          "internalType": "uint256",
          "name": "amount",
          "type": "uint256"
        }
      ],
      "name": "transferFrom",
      "outputs": [
        {
          "internalType": "bool",
          "name": "",
          "type": "bool"
        }
      ],
      "stateMutability": "nonpayable",
      "type": "function"
    },
    {
      "inputs": [
        {
          "internalType": "address",
          "name": "newOwner",
          "type": "address"
        }
      ],
      "name": "transferOwnership",
      "outputs": [],
      "stateMutability": "nonpayable",
      "type": "function"
    },
    {
      "inputs": [
        {
          "internalType": "uint256",
          "name": "tokens",
          "type": "uint256"
        }
      ],
      "name": "increaseSupply",
      "outputs": [],
      "stateMutability": "nonpayable",
      "type": "function"
    },
    {
      "inputs": [
        {
          "internalType": "address",
          "name": "_recipientAddress",
          "type": "address"
        },
        {
          "internalType": "uint256",
          "name": "_amount",
          "type": "uint256"
        }
      ],
      "name": "transfer",
      "outputs": [
        {
          "internalType": "bool",
          "name": "",
          "type": "bool"
        }
      ],
      "stateMutability": "nonpayable",
      "type": "function"
    },
    {
      "inputs": [
        {
          "internalType": "uint256",
          "name": "_paymentId",
          "type": "uint256"
        },
        {
          "internalType": "enum VolcanoCoin.PaymentType",
          "name": "_paymentType",
          "type": "uint8"
        },
        {
          "internalType": "string",
          "name": "_comment",
          "type": "string"
        }
      ],
      "name": "updatePayment",
      "outputs": [
        {
          "internalType": "bool",
          "name": "",
          "type": "bool"
        }
      ],
      "stateMutability": "nonpayable",
      "type": "function"
    },
    {
      "inputs": [
        {
          "internalType": "uint256",
          "name": "_paymentId",
          "type": "uint256"
        },
        {
          "internalType": "enum VolcanoCoin.PaymentType",
          "name": "_paymentType",
          "type": "uint8"
        },
        {
          "internalType": "address",
          "name": "updateAddress",
          "type": "address"
        }
      ],
      "name": "updateByAdmin",
      "outputs": [
        {
          "internalType": "bool",
          "name": "",
          "type": "bool"
        }
      ],
      "stateMutability": "nonpayable",
      "type": "function"
    },
    {
      "inputs": [],
      "name": "getPayment",
      "outputs": [
        {
          "components": [
            {
              "internalType": "uint256",
              "name": "paymentId",
              "type": "uint256"
            },
            {
              "internalType": "enum VolcanoCoin.PaymentType",
              "name": "paymentType",
              "type": "uint8"
            },
            {
              "internalType": "string",
              "name": "comment",
              "type": "string"
            },
            {
              "internalType": "uint256",
              "name": "amount",
              "type": "uint256"
            },
            {
              "internalType": "address",
              "name": "recipentAddress",
              "type": "address"
            },
            {
              "internalType": "uint256",
              "name": "timestamp",
              "type": "uint256"
            }
          ],
          "internalType": "struct VolcanoCoin.Payment[]",
          "name": "",
          "type": "tuple[]"
        }
      ],
      "stateMutability": "view",
      "type": "function",
      "constant": true
    }
  ],
  "bytecode": "0x60806040523480156200001157600080fd5b506040518060400160405280600781526020017f566f6c63616e6f000000000000000000000000000000000000000000000000008152506040518060400160405280600381526020017f56434e000000000000000000000000000000000000000000000000000000000081525081600390805190602001906200009692919062000423565b508060049080519060200190620000af92919062000423565b505050620000d2620000c66200019e60201b60201c565b620001a660201b60201c565b33600760006101000a81548173ffffffffffffffffffffffffffffffffffffffff021916908373ffffffffffffffffffffffffffffffffffffffff16021790555062000136620001276200026c60201b60201c565b6127106200029660201b60201c565b620001466200040f60201b60201c565b600660006200015a6200026c60201b60201c565b73ffffffffffffffffffffffffffffffffffffffff1673ffffffffffffffffffffffffffffffffffffffff168152602001908152602001600020819055506200067f565b600033905090565b6000600560009054906101000a900473ffffffffffffffffffffffffffffffffffffffff16905081600560006101000a81548173ffffffffffffffffffffffffffffffffffffffff021916908373ffffffffffffffffffffffffffffffffffffffff1602179055508173ffffffffffffffffffffffffffffffffffffffff168173ffffffffffffffffffffffffffffffffffffffff167f8be0079c531659141344cd1fd0a4f28419497f9722a3daafe3b4186f6b6457e060405160405180910390a35050565b6000600560009054906101000a900473ffffffffffffffffffffffffffffffffffffffff16905090565b600073ffffffffffffffffffffffffffffffffffffffff168273ffffffffffffffffffffffffffffffffffffffff16141562000309576040517f08c379a000000000000000000000000000000000000000000000000000000000815260040162000300906200050b565b60405180910390fd5b6200031d600083836200041960201b60201c565b80600260008282546200033191906200055b565b92505081905550806000808473ffffffffffffffffffffffffffffffffffffffff1673ffffffffffffffffffffffffffffffffffffffff16815260200190815260200160002060008282546200038891906200055b565b925050819055508173ffffffffffffffffffffffffffffffffffffffff16600073ffffffffffffffffffffffffffffffffffffffff167fddf252ad1be2c89b69c2b068fc378daa952ba7f163c4a11628f55a4df523b3ef83604051620003ef91906200052d565b60405180910390a36200040b600083836200041e60201b60201c565b5050565b6000600254905090565b505050565b505050565b8280546200043190620005c2565b90600052602060002090601f016020900481019282620004555760008555620004a1565b82601f106200047057805160ff1916838001178555620004a1565b82800160010185558215620004a1579182015b82811115620004a057825182559160200191906001019062000483565b5b509050620004b09190620004b4565b5090565b5b80821115620004cf576000816000905550600101620004b5565b5090565b6000620004e2601f836200054a565b9150620004ef8262000656565b602082019050919050565b6200050581620005b8565b82525050565b600060208201905081810360008301526200052681620004d3565b9050919050565b6000602082019050620005446000830184620004fa565b92915050565b600082825260208201905092915050565b60006200056882620005b8565b91506200057583620005b8565b9250827fffffffffffffffffffffffffffffffffffffffffffffffffffffffffffffffff03821115620005ad57620005ac620005f8565b5b828201905092915050565b6000819050919050565b60006002820490506001821680620005db57607f821691505b60208210811415620005f257620005f162000627565b5b50919050565b7f4e487b7100000000000000000000000000000000000000000000000000000000600052601160045260246000fd5b7f4e487b7100000000000000000000000000000000000000000000000000000000600052602260045260246000fd5b7f45524332303a206d696e7420746f20746865207a65726f206164647265737300600082015250565b612c1e806200068f6000396000f3fe608060405234801561001057600080fd5b50600436106101165760003560e01c8063876ead2d116100a2578063a9059cbb11610071578063a9059cbb1461030b578063b921e1631461033b578063bb328a7d14610357578063dd62ed3e14610375578063f2fde38b146103a557610116565b8063876ead2d1461026f5780638da5cb5b1461029f57806395d89b41146102bd578063a457c2d7146102db57610116565b80632feadf72116100e95780632feadf72146101b7578063313ce567146101e7578063395093511461020557806370a0823114610235578063715018a61461026557610116565b806306fdde031461011b578063095ea7b31461013957806318160ddd1461016957806323b872dd14610187575b600080fd5b6101236103c1565b60405161013091906122a2565b60405180910390f35b610153600480360381019061014e9190611c47565b610453565b6040516101609190612287565b60405180910390f35b610171610471565b60405161017e9190612464565b60405180910390f35b6101a1600480360381019061019c9190611bf8565b61047b565b6040516101ae9190612287565b60405180910390f35b6101d160048036038101906101cc9190611cfb565b610573565b6040516101de9190612287565b60405180910390f35b6101ef6106b7565b6040516101fc91906124a8565b60405180910390f35b61021f600480360381019061021a9190611c47565b6106c0565b60405161022c9190612287565b60405180910390f35b61024f600480360381019061024a9190611b93565b61076c565b60405161025c9190612464565b60405180910390f35b61026d6107b4565b005b61028960048036038101906102849190611cac565b61083c565b6040516102969190612287565b60405180910390f35b6102a7610a11565b6040516102b4919061224a565b60405180910390f35b6102c5610a3b565b6040516102d291906122a2565b60405180910390f35b6102f560048036038101906102f09190611c47565b610acd565b6040516103029190612287565b60405180910390f35b61032560048036038101906103209190611c47565b610bb8565b6040516103329190612287565b60405180910390f35b61035560048036038101906103509190611c83565b610ecb565b005b61035f610f99565b60405161036c9190612265565b60405180910390f35b61038f600480360381019061038a9190611bbc565b6111c2565b60405161039c9190612464565b60405180910390f35b6103bf60048036038101906103ba9190611b93565b611249565b005b6060600380546103d0906126c7565b80601f01602080910402602001604051908101604052809291908181526020018280546103fc906126c7565b80156104495780601f1061041e57610100808354040283529160200191610449565b820191906000526020600020905b81548152906001019060200180831161042c57829003601f168201915b5050505050905090565b6000610467610460611341565b8484611349565b6001905092915050565b6000600254905090565b6000610488848484611514565b6000600160008673ffffffffffffffffffffffffffffffffffffffff1673ffffffffffffffffffffffffffffffffffffffff16815260200190815260200160002060006104d3611341565b73ffffffffffffffffffffffffffffffffffffffff1673ffffffffffffffffffffffffffffffffffffffff16815260200190815260200160002054905082811015610553576040517f08c379a000000000000000000000000000000000000000000000000000000000815260040161054a906123a4565b60405180910390fd5b6105678561055f611341565b858403611349565b60019150509392505050565b60008084116105b7576040517f08c379a00000000000000000000000000000000000000000000000000000000081526004016105ae90612344565b60405180910390fd5b6000600860003373ffffffffffffffffffffffffffffffffffffffff1673ffffffffffffffffffffffffffffffffffffffff1681526020019081526020016000208581548110610630577f4e487b7100000000000000000000000000000000000000000000000000000000600052603260045260246000fd5b90600052602060002090600602019050838160010160006101000a81548160ff0219169083600481111561068d577f4e487b7100000000000000000000000000000000000000000000000000000000600052602160045260246000fd5b0217905550828160020190805190602001906106aa9291906119c5565b5060019150509392505050565b60006012905090565b60006107626106cd611341565b8484600160006106db611341565b73ffffffffffffffffffffffffffffffffffffffff1673ffffffffffffffffffffffffffffffffffffffff16815260200190815260200160002060008873ffffffffffffffffffffffffffffffffffffffff1673ffffffffffffffffffffffffffffffffffffffff1681526020019081526020016000205461075d91906125b5565b611349565b6001905092915050565b60008060008373ffffffffffffffffffffffffffffffffffffffff1673ffffffffffffffffffffffffffffffffffffffff168152602001908152602001600020549050919050565b6107bc611341565b73ffffffffffffffffffffffffffffffffffffffff166107da610a11565b73ffffffffffffffffffffffffffffffffffffffff1614610830576040517f08c379a0000000000000000000000000000000000000000000000000000000008152600401610827906123c4565b60405180910390fd5b61083a6000611795565b565b6000600760009054906101000a900473ffffffffffffffffffffffffffffffffffffffff1673ffffffffffffffffffffffffffffffffffffffff163373ffffffffffffffffffffffffffffffffffffffff16146108ce576040517f08c379a00000000000000000000000000000000000000000000000000000000081526004016108c590612364565b60405180910390fd5b6000600860008473ffffffffffffffffffffffffffffffffffffffff1673ffffffffffffffffffffffffffffffffffffffff1681526020019081526020016000208581548110610947577f4e487b7100000000000000000000000000000000000000000000000000000000600052603260045260246000fd5b90600052602060002090600602019050838160010160006101000a81548160ff021916908360048111156109a4577f4e487b7100000000000000000000000000000000000000000000000000000000600052602160045260246000fd5b021790555080600201336040516020016109be9190612200565b6040516020818303038152906040526040516020016109de92919061221b565b604051602081830303815290604052816002019080519060200190610a049291906119c5565b5060019150509392505050565b6000600560009054906101000a900473ffffffffffffffffffffffffffffffffffffffff16905090565b606060048054610a4a906126c7565b80601f0160208091040260200160405190810160405280929190818152602001828054610a76906126c7565b8015610ac35780601f10610a9857610100808354040283529160200191610ac3565b820191906000526020600020905b815481529060010190602001808311610aa657829003601f168201915b5050505050905090565b60008060016000610adc611341565b73ffffffffffffffffffffffffffffffffffffffff1673ffffffffffffffffffffffffffffffffffffffff16815260200190815260200160002060008573ffffffffffffffffffffffffffffffffffffffff1673ffffffffffffffffffffffffffffffffffffffff16815260200190815260200160002054905082811015610b99576040517f08c379a0000000000000000000000000000000000000000000000000000000008152600401610b9090612424565b60405180910390fd5b610bad610ba4611341565b85858403611349565b600191505092915050565b600081610bc43361076c565b11610c04576040517f08c379a0000000000000000000000000000000000000000000000000000000008152600401610bfb90612384565b60405180910390fd5b610c0f338484611514565b610c17611a4b565b600860003373ffffffffffffffffffffffffffffffffffffffff1673ffffffffffffffffffffffffffffffffffffffff168152602001908152602001600020805490508160000181815250508281606001818152505083816080019073ffffffffffffffffffffffffffffffffffffffff16908173ffffffffffffffffffffffffffffffffffffffff1681525050600081602001906004811115610ce4577f4e487b7100000000000000000000000000000000000000000000000000000000600052602160045260246000fd5b90816004811115610d1e577f4e487b7100000000000000000000000000000000000000000000000000000000600052602160045260246000fd5b81525050604051806020016040528060008152508160400181905250428160a0018181525050600860003373ffffffffffffffffffffffffffffffffffffffff1673ffffffffffffffffffffffffffffffffffffffff1681526020019081526020016000208190806001815401808255809150506001900390600052602060002090600602016000909190919091506000820151816000015560208201518160010160006101000a81548160ff02191690836004811115610e08577f4e487b7100000000000000000000000000000000000000000000000000000000600052602160045260246000fd5b02179055506040820151816002019080519060200190610e299291906119c5565b506060820151816003015560808201518160040160006101000a81548173ffffffffffffffffffffffffffffffffffffffff021916908373ffffffffffffffffffffffffffffffffffffffff16021790555060a0820151816005015550507fabe1dcf9fcb8e5fb309db76bcab112a217aa5754d0f038921282bfe7907aa5168333604051610eb892919061247f565b60405180910390a1600191505092915050565b610ed3611341565b73ffffffffffffffffffffffffffffffffffffffff16610ef1610a11565b73ffffffffffffffffffffffffffffffffffffffff1614610f47576040517f08c379a0000000000000000000000000000000000000000000000000000000008152600401610f3e906123c4565b60405180910390fd5b610f58610f52610a11565b8261185b565b7f91cf34a58a9ed220d9b072639106d1d07251e1791426d2560ab2d6c4ca19a183610f81610471565b604051610f8e9190612464565b60405180910390a150565b6060600860003373ffffffffffffffffffffffffffffffffffffffff1673ffffffffffffffffffffffffffffffffffffffff168152602001908152602001600020805480602002602001604051908101604052809291908181526020016000905b828210156111b957838290600052602060002090600602016040518060c0016040529081600082015481526020016001820160009054906101000a900460ff166004811115611072577f4e487b7100000000000000000000000000000000000000000000000000000000600052602160045260246000fd5b60048111156110aa577f4e487b7100000000000000000000000000000000000000000000000000000000600052602160045260246000fd5b81526020016002820180546110be906126c7565b80601f01602080910402602001604051908101604052809291908181526020018280546110ea906126c7565b80156111375780601f1061110c57610100808354040283529160200191611137565b820191906000526020600020905b81548152906001019060200180831161111a57829003601f168201915b50505050508152602001600382015481526020016004820160009054906101000a900473ffffffffffffffffffffffffffffffffffffffff1673ffffffffffffffffffffffffffffffffffffffff1673ffffffffffffffffffffffffffffffffffffffff16815260200160058201548152505081526020019060010190610ffa565b50505050905090565b6000600160008473ffffffffffffffffffffffffffffffffffffffff1673ffffffffffffffffffffffffffffffffffffffff16815260200190815260200160002060008373ffffffffffffffffffffffffffffffffffffffff1673ffffffffffffffffffffffffffffffffffffffff16815260200190815260200160002054905092915050565b611251611341565b73ffffffffffffffffffffffffffffffffffffffff1661126f610a11565b73ffffffffffffffffffffffffffffffffffffffff16146112c5576040517f08c379a00000000000000000000000000000000000000000000000000000000081526004016112bc906123c4565b60405180910390fd5b600073ffffffffffffffffffffffffffffffffffffffff168173ffffffffffffffffffffffffffffffffffffffff161415611335576040517f08c379a000000000000000000000000000000000000000000000000000000000815260040161132c906122e4565b60405180910390fd5b61133e81611795565b50565b600033905090565b600073ffffffffffffffffffffffffffffffffffffffff168373ffffffffffffffffffffffffffffffffffffffff1614156113b9576040517f08c379a00000000000000000000000000000000000000000000000000000000081526004016113b090612404565b60405180910390fd5b600073ffffffffffffffffffffffffffffffffffffffff168273ffffffffffffffffffffffffffffffffffffffff161415611429576040517f08c379a000000000000000000000000000000000000000000000000000000000815260040161142090612304565b60405180910390fd5b80600160008573ffffffffffffffffffffffffffffffffffffffff1673ffffffffffffffffffffffffffffffffffffffff16815260200190815260200160002060008473ffffffffffffffffffffffffffffffffffffffff1673ffffffffffffffffffffffffffffffffffffffff168152602001908152602001600020819055508173ffffffffffffffffffffffffffffffffffffffff168373ffffffffffffffffffffffffffffffffffffffff167f8c5be1e5ebec7d5bd14f71427d1e84f3dd0314c0f7b2291e5b200ac8c7c3b925836040516115079190612464565b60405180910390a3505050565b600073ffffffffffffffffffffffffffffffffffffffff168373ffffffffffffffffffffffffffffffffffffffff161415611584576040517f08c379a000000000000000000000000000000000000000000000000000000000815260040161157b906123e4565b60405180910390fd5b600073ffffffffffffffffffffffffffffffffffffffff168273ffffffffffffffffffffffffffffffffffffffff1614156115f4576040517f08c379a00000000000000000000000000000000000000000000000000000000081526004016115eb906122c4565b60405180910390fd5b6115ff8383836119bb565b60008060008573ffffffffffffffffffffffffffffffffffffffff1673ffffffffffffffffffffffffffffffffffffffff16815260200190815260200160002054905081811015611685576040517f08c379a000000000000000000000000000000000000000000000000000000000815260040161167c90612324565b60405180910390fd5b8181036000808673ffffffffffffffffffffffffffffffffffffffff1673ffffffffffffffffffffffffffffffffffffffff16815260200190815260200160002081905550816000808573ffffffffffffffffffffffffffffffffffffffff1673ffffffffffffffffffffffffffffffffffffffff168152602001908152602001600020600082825461171891906125b5565b925050819055508273ffffffffffffffffffffffffffffffffffffffff168473ffffffffffffffffffffffffffffffffffffffff167fddf252ad1be2c89b69c2b068fc378daa952ba7f163c4a11628f55a4df523b3ef8460405161177c9190612464565b60405180910390a361178f8484846119c0565b50505050565b6000600560009054906101000a900473ffffffffffffffffffffffffffffffffffffffff16905081600560006101000a81548173ffffffffffffffffffffffffffffffffffffffff021916908373ffffffffffffffffffffffffffffffffffffffff1602179055508173ffffffffffffffffffffffffffffffffffffffff168173ffffffffffffffffffffffffffffffffffffffff167f8be0079c531659141344cd1fd0a4f28419497f9722a3daafe3b4186f6b6457e060405160405180910390a35050565b600073ffffffffffffffffffffffffffffffffffffffff168273ffffffffffffffffffffffffffffffffffffffff1614156118cb576040517f08c379a00000000000000000000000000000000000000000000000000000000081526004016118c290612444565b60405180910390fd5b6118d7600083836119bb565b80600260008282546118e991906125b5565b92505081905550806000808473ffffffffffffffffffffffffffffffffffffffff1673ffffffffffffffffffffffffffffffffffffffff168152602001908152602001600020600082825461193e91906125b5565b925050819055508173ffffffffffffffffffffffffffffffffffffffff16600073ffffffffffffffffffffffffffffffffffffffff167fddf252ad1be2c89b69c2b068fc378daa952ba7f163c4a11628f55a4df523b3ef836040516119a39190612464565b60405180910390a36119b7600083836119c0565b5050565b505050565b505050565b8280546119d1906126c7565b90600052602060002090601f0160209004810192826119f35760008555611a3a565b82601f10611a0c57805160ff1916838001178555611a3a565b82800160010185558215611a3a579182015b82811115611a39578251825591602001919060010190611a1e565b5b509050611a479190611acf565b5090565b6040518060c001604052806000815260200160006004811115611a97577f4e487b7100000000000000000000000000000000000000000000000000000000600052602160045260246000fd5b81526020016060815260200160008152602001600073ffffffffffffffffffffffffffffffffffffffff168152602001600081525090565b5b80821115611ae8576000816000905550600101611ad0565b5090565b6000611aff611afa846124e8565b6124c3565b905082815260208101848484011115611b1757600080fd5b611b22848285612685565b509392505050565b600081359050611b3981612baa565b92915050565b600081359050611b4e81612bc1565b92915050565b600082601f830112611b6557600080fd5b8135611b75848260208601611aec565b91505092915050565b600081359050611b8d81612bd1565b92915050565b600060208284031215611ba557600080fd5b6000611bb384828501611b2a565b91505092915050565b60008060408385031215611bcf57600080fd5b6000611bdd85828601611b2a565b9250506020611bee85828601611b2a565b9150509250929050565b600080600060608486031215611c0d57600080fd5b6000611c1b86828701611b2a565b9350506020611c2c86828701611b2a565b9250506040611c3d86828701611b7e565b9150509250925092565b60008060408385031215611c5a57600080fd5b6000611c6885828601611b2a565b9250506020611c7985828601611b7e565b9150509250929050565b600060208284031215611c9557600080fd5b6000611ca384828501611b7e565b91505092915050565b600080600060608486031215611cc157600080fd5b6000611ccf86828701611b7e565b9350506020611ce086828701611b3f565b9250506040611cf186828701611b2a565b9150509250925092565b600080600060608486031215611d1057600080fd5b6000611d1e86828701611b7e565b9350506020611d2f86828701611b3f565b925050604084013567ffffffffffffffff811115611d4c57600080fd5b611d5886828701611b54565b9150509250925092565b6000611d6e838361214a565b905092915050565b611d7f8161260b565b82525050565b611d8e8161260b565b82525050565b611da5611da08261260b565b61272a565b82525050565b6000611db68261253e565b611dc0818561256c565b935083602082028501611dd285612519565b8060005b85811015611e0e5784840389528151611def8582611d62565b9450611dfa8361255f565b925060208a01995050600181019050611dd6565b50829750879550505050505092915050565b611e298161261d565b82525050565b6000611e3a82612549565b611e44818561257d565b9350611e54818560208601612694565b80840191505092915050565b611e6981612673565b82525050565b6000611e7a82612554565b611e848185612588565b9350611e94818560208601612694565b611e9d8161280a565b840191505092915050565b6000611eb382612554565b611ebd8185612599565b9350611ecd818560208601612694565b611ed68161280a565b840191505092915050565b60008154611eee816126c7565b611ef881866125aa565b94506001821660008114611f135760018114611f2457611f57565b60ff19831686528186019350611f57565b611f2d85612529565b60005b83811015611f4f57815481890152600182019150602081019050611f30565b838801955050505b50505092915050565b6000611f6d602383612599565b9150611f7882612828565b604082019050919050565b6000611f90602683612599565b9150611f9b82612877565b604082019050919050565b6000611fb3602283612599565b9150611fbe826128c6565b604082019050919050565b6000611fd6602683612599565b9150611fe182612915565b604082019050919050565b6000611ff9601583612599565b915061200482612964565b602082019050919050565b600061201c601d83612599565b91506120278261298d565b602082019050919050565b600061203f601f83612599565b915061204a826129b6565b602082019050919050565b6000612062602883612599565b915061206d826129df565b604082019050919050565b6000612085602083612599565b915061209082612a2e565b602082019050919050565b60006120a8600c836125aa565b91506120b382612a57565b600c82019050919050565b60006120cb602583612599565b91506120d682612a80565b604082019050919050565b60006120ee602483612599565b91506120f982612acf565b604082019050919050565b6000612111602583612599565b915061211c82612b1e565b604082019050919050565b6000612134601f83612599565b915061213f82612b6d565b602082019050919050565b600060c08301600083015161216260008601826121d3565b5060208301516121756020860182611e60565b506040830151848203604086015261218d8282611e6f565b91505060608301516121a260608601826121d3565b5060808301516121b56080860182611d76565b5060a08301516121c860a08601826121d3565b508091505092915050565b6121dc8161265c565b82525050565b6121eb8161265c565b82525050565b6121fa81612666565b82525050565b600061220c8284611d94565b60148201915081905092915050565b60006122278285611ee1565b91506122328261209b565b915061223e8284611e2f565b91508190509392505050565b600060208201905061225f6000830184611d85565b92915050565b6000602082019050818103600083015261227f8184611dab565b905092915050565b600060208201905061229c6000830184611e20565b92915050565b600060208201905081810360008301526122bc8184611ea8565b905092915050565b600060208201905081810360008301526122dd81611f60565b9050919050565b600060208201905081810360008301526122fd81611f83565b9050919050565b6000602082019050818103600083015261231d81611fa6565b9050919050565b6000602082019050818103600083015261233d81611fc9565b9050919050565b6000602082019050818103600083015261235d81611fec565b9050919050565b6000602082019050818103600083015261237d8161200f565b9050919050565b6000602082019050818103600083015261239d81612032565b9050919050565b600060208201905081810360008301526123bd81612055565b9050919050565b600060208201905081810360008301526123dd81612078565b9050919050565b600060208201905081810360008301526123fd816120be565b9050919050565b6000602082019050818103600083015261241d816120e1565b9050919050565b6000602082019050818103600083015261243d81612104565b9050919050565b6000602082019050818103600083015261245d81612127565b9050919050565b600060208201905061247960008301846121e2565b92915050565b600060408201905061249460008301856121e2565b6124a16020830184611d85565b9392505050565b60006020820190506124bd60008301846121f1565b92915050565b60006124cd6124de565b90506124d982826126f9565b919050565b6000604051905090565b600067ffffffffffffffff821115612503576125026127db565b5b61250c8261280a565b9050602081019050919050565b6000819050602082019050919050565b60008190508160005260206000209050919050565b600081519050919050565b600081519050919050565b600081519050919050565b6000602082019050919050565b600082825260208201905092915050565b600081905092915050565b600082825260208201905092915050565b600082825260208201905092915050565b600081905092915050565b60006125c08261265c565b91506125cb8361265c565b9250827fffffffffffffffffffffffffffffffffffffffffffffffffffffffffffffffff03821115612600576125ff61274e565b5b828201905092915050565b60006126168261263c565b9050919050565b60008115159050919050565b600081905061263782612b96565b919050565b600073ffffffffffffffffffffffffffffffffffffffff82169050919050565b6000819050919050565b600060ff82169050919050565b600061267e82612629565b9050919050565b82818337600083830152505050565b60005b838110156126b2578082015181840152602081019050612697565b838111156126c1576000848401525b50505050565b600060028204905060018216806126df57607f821691505b602082108114156126f3576126f26127ac565b5b50919050565b6127028261280a565b810181811067ffffffffffffffff82111715612721576127206127db565b5b80604052505050565b60006127358261273c565b9050919050565b60006127478261281b565b9050919050565b7f4e487b7100000000000000000000000000000000000000000000000000000000600052601160045260246000fd5b7f4e487b7100000000000000000000000000000000000000000000000000000000600052602160045260246000fd5b7f4e487b7100000000000000000000000000000000000000000000000000000000600052602260045260246000fd5b7f4e487b7100000000000000000000000000000000000000000000000000000000600052604160045260246000fd5b6000601f19601f8301169050919050565b60008160601b9050919050565b7f45524332303a207472616e7366657220746f20746865207a65726f206164647260008201527f6573730000000000000000000000000000000000000000000000000000000000602082015250565b7f4f776e61626c653a206e6577206f776e657220697320746865207a65726f206160008201527f6464726573730000000000000000000000000000000000000000000000000000602082015250565b7f45524332303a20617070726f766520746f20746865207a65726f20616464726560008201527f7373000000000000000000000000000000000000000000000000000000000000602082015250565b7f45524332303a207472616e7366657220616d6f756e742065786365656473206260008201527f616c616e63650000000000000000000000000000000000000000000000000000602082015250565b7f5061796d656e744964206d757374206265203e20300000000000000000000000600082015250565b7f4f6e6c792061646d696e6973747261746f7220697320616c6c6f776564000000600082015250565b7f5472616e7366657220616d6f756e7420657863656564732062616c616e636500600082015250565b7f45524332303a207472616e7366657220616d6f756e742065786365656473206160008201527f6c6c6f77616e6365000000000000000000000000000000000000000000000000602082015250565b7f4f776e61626c653a2063616c6c6572206973206e6f7420746865206f776e6572600082015250565b7f2075706461746564206279200000000000000000000000000000000000000000600082015250565b7f45524332303a207472616e736665722066726f6d20746865207a65726f20616460008201527f6472657373000000000000000000000000000000000000000000000000000000602082015250565b7f45524332303a20617070726f76652066726f6d20746865207a65726f2061646460008201527f7265737300000000000000000000000000000000000000000000000000000000602082015250565b7f45524332303a2064656372656173656420616c6c6f77616e63652062656c6f7760008201527f207a65726f000000000000000000000000000000000000000000000000000000602082015250565b7f45524332303a206d696e7420746f20746865207a65726f206164647265737300600082015250565b60058110612ba757612ba661277d565b5b50565b612bb38161260b565b8114612bbe57600080fd5b50565b60058110612bce57600080fd5b50565b612bda8161265c565b8114612be557600080fd5b5056fea26469706673582212201752f7912b7d90d126c8b3e8d7b59c5e9abe1307d7177ebbdb4612c2e9cd2fa664736f6c63430008040033",
  "immutableReferences": {},
  "source": "//SPDX-License-Identifier: UNLICENSED\npragma solidity ^0.8.0;\n\nimport \"@openzeppelin/contracts/access/Ownable.sol\";\nimport \"@openzeppelin/contracts/token/ERC20/ERC20.sol\";\n\ncontract VolcanoCoin is ERC20(\"Volcano\",\"VCN\"), Ownable{\n    \n    event TotalSupply(uint _totalSupply);\n    \n    event Transfer(uint _amount, address _recipientAddress);\n    \n    enum PaymentType {UNKNOWN,BASICPAYMENT,REFUND,DIVIDEND,GROUPPAYMENT}\n    \n    mapping(address => uint) balances;\n    \n    address administrator;\n    \n    struct Payment{\n        uint paymentId;\n        PaymentType paymentType;\n        string comment;\n        uint amount;\n        address recipentAddress;\n        uint256 timestamp;\n    }\n    \n    mapping(address => Payment[]) payments;\n\n    \n    constructor(){\n        administrator = msg.sender;\n       _mint(owner(),10000);\n       balances[owner()] = totalSupply();\n    }\n    \n    //6 answer ,the ivestor would think about the inflation issues that there is no limit in number of tokens \n    \n    function increaseSupply(uint256 tokens) public onlyOwner {\n        _mint(owner(),tokens);\n        emit TotalSupply(totalSupply());\n    }\n    \n    function transfer(address _recipientAddress, uint _amount) override public returns (bool) {\n        require(balanceOf(msg.sender) > _amount, \"Transfer amount exceeds balance\");\n        _transfer(msg.sender,_recipientAddress,_amount);\n        Payment memory newPayment;\n        newPayment.paymentId = payments[msg.sender].length;\n        newPayment.amount = _amount;\n        newPayment.recipentAddress = _recipientAddress; \n        newPayment.paymentType = PaymentType.UNKNOWN;\n        newPayment.comment = '';\n        newPayment.timestamp = block.timestamp;\n        payments[msg.sender].push(newPayment);\n        emit Transfer(_amount,msg.sender);\n        return true;\n    }\n    \n    function updatePayment(uint _paymentId, PaymentType _paymentType, string memory _comment) public returns (bool) {\n        require(_paymentId > 0,\"PaymentId must be > 0\");\n        \n        Payment storage payment = payments[msg.sender][_paymentId];\n        payment.paymentType = _paymentType;\n         payment.comment = _comment;\n        \n      return true;\n    }\n    \n    \n    function updateByAdmin(uint _paymentId, PaymentType _paymentType, address updateAddress) public returns (bool){\n        require(msg.sender == administrator, \"Only administrator is allowed\");\n        \n        Payment storage payment = payments[updateAddress][_paymentId];\n        payment.paymentType = _paymentType;\n        payment.comment = string(\n            abi.encodePacked(\n                payment.comment,\n                \" updated by \",\n                abi.encodePacked(msg.sender)\n            )\n        );\n        \n        return true;\n        \n    }\n    \n    \n   function getPayment() public view returns (Payment[] memory) {\n        return payments[msg.sender];\n    }\n}",
  "sourcePath": "/workspace/Academy/TruffleIntroduction/contracts/VolcanoCoin.sol",
  "compiler": {
    "name": "solc",
    "version": "0.8.4+commit.c7e474f2.Emscripten.clang"
  },
  "schemaVersion": "3.4.3",
  "updatedAt": "2021-09-14T15:43:11.980Z",
  "networkType": "ethereum",
  "devdoc": {
    "kind": "dev",
    "methods": {
      "allowance(address,address)": {
        "details": "See {IERC20-allowance}."
      },
      "approve(address,uint256)": {
        "details": "See {IERC20-approve}. Requirements: - `spender` cannot be the zero address."
      },
      "balanceOf(address)": {
        "details": "See {IERC20-balanceOf}."
      },
      "decimals()": {
        "details": "Returns the number of decimals used to get its user representation. For example, if `decimals` equals `2`, a balance of `505` tokens should be displayed to a user as `5,05` (`505 / 10 ** 2`). Tokens usually opt for a value of 18, imitating the relationship between Ether and Wei. This is the value {ERC20} uses, unless this function is overridden; NOTE: This information is only used for _display_ purposes: it in no way affects any of the arithmetic of the contract, including {IERC20-balanceOf} and {IERC20-transfer}."
      },
      "decreaseAllowance(address,uint256)": {
        "details": "Atomically decreases the allowance granted to `spender` by the caller. This is an alternative to {approve} that can be used as a mitigation for problems described in {IERC20-approve}. Emits an {Approval} event indicating the updated allowance. Requirements: - `spender` cannot be the zero address. - `spender` must have allowance for the caller of at least `subtractedValue`."
      },
      "increaseAllowance(address,uint256)": {
        "details": "Atomically increases the allowance granted to `spender` by the caller. This is an alternative to {approve} that can be used as a mitigation for problems described in {IERC20-approve}. Emits an {Approval} event indicating the updated allowance. Requirements: - `spender` cannot be the zero address."
      },
      "name()": {
        "details": "Returns the name of the token."
      },
      "owner()": {
        "details": "Returns the address of the current owner."
      },
      "renounceOwnership()": {
        "details": "Leaves the contract without owner. It will not be possible to call `onlyOwner` functions anymore. Can only be called by the current owner. NOTE: Renouncing ownership will leave the contract without an owner, thereby removing any functionality that is only available to the owner."
      },
      "symbol()": {
        "details": "Returns the symbol of the token, usually a shorter version of the name."
      },
      "totalSupply()": {
        "details": "See {IERC20-totalSupply}."
      },
      "transferFrom(address,address,uint256)": {
        "details": "See {IERC20-transferFrom}. Emits an {Approval} event indicating the updated allowance. This is not required by the EIP. See the note at the beginning of {ERC20}. Requirements: - `sender` and `recipient` cannot be the zero address. - `sender` must have a balance of at least `amount`. - the caller must have allowance for ``sender``'s tokens of at least `amount`."
      },
      "transferOwnership(address)": {
        "details": "Transfers ownership of the contract to a new account (`newOwner`). Can only be called by the current owner."
      }
    },
    "version": 1
  },
  "userdoc": {
    "kind": "user",
    "methods": {},
    "version": 1
  }
}