{
  "contractName": "VolcanoToken",
  "abi": [
    {
      "anonymous": false,
      "inputs": [
        {
          "indexed": true,
          "internalType": "address",
          "name": "owner",
          "type": "address"
        },
        {
          "indexed": true,
          "internalType": "address",
          "name": "approved",
          "type": "address"
        },
        {
          "indexed": true,
          "internalType": "uint256",
          "name": "tokenId",
          "type": "uint256"
        }
      ],
      "name": "Approval",
      "type": "event"
    },
    {
      "anonymous": false,
      "inputs": [
        {
          "indexed": true,
          "internalType": "address",
          "name": "owner",
          "type": "address"
        },
        {
          "indexed": true,
          "internalType": "address",
          "name": "operator",
          "type": "address"
        },
        {
          "indexed": false,
          "internalType": "bool",
          "name": "approved",
          "type": "bool"
        }
      ],
      "name": "ApprovalForAll",
      "type": "event"
    },
    {
      "anonymous": false,
      "inputs": [
        {
          "indexed": true,
          "internalType": "address",
          "name": "previousOwner",
          "type": "address"
        },
        {
          "indexed": true,
          "internalType": "address",
          "name": "newOwner",
          "type": "address"
        }
      ],
      "name": "OwnershipTransferred",
      "type": "event"
    },
    {
      "anonymous": false,
      "inputs": [
        {
          "indexed": true,
          "internalType": "address",
          "name": "from",
          "type": "address"
        },
        {
          "indexed": true,
          "internalType": "address",
          "name": "to",
          "type": "address"
        },
        {
          "indexed": true,
          "internalType": "uint256",
          "name": "tokenId",
          "type": "uint256"
        }
      ],
      "name": "Transfer",
      "type": "event"
    },
    {
      "inputs": [
        {
          "internalType": "address",
          "name": "to",
          "type": "address"
        },
        {
          "internalType": "uint256",
          "name": "tokenId",
          "type": "uint256"
        }
      ],
      "name": "approve",
      "outputs": [],
      "stateMutability": "nonpayable",
      "type": "function"
    },
    {
      "inputs": [
        {
          "internalType": "address",
          "name": "owner",
          "type": "address"
        }
      ],
      "name": "balanceOf",
      "outputs": [
        {
          "internalType": "uint256",
          "name": "",
          "type": "uint256"
        }
      ],
      "stateMutability": "view",
      "type": "function"
    },
    {
      "inputs": [
        {
          "internalType": "uint256",
          "name": "tokenId",
          "type": "uint256"
        }
      ],
      "name": "getApproved",
      "outputs": [
        {
          "internalType": "address",
          "name": "",
          "type": "address"
        }
      ],
      "stateMutability": "view",
      "type": "function"
    },
    {
      "inputs": [
        {
          "internalType": "address",
          "name": "owner",
          "type": "address"
        },
        {
          "internalType": "address",
          "name": "operator",
          "type": "address"
        }
      ],
      "name": "isApprovedForAll",
      "outputs": [
        {
          "internalType": "bool",
          "name": "",
          "type": "bool"
        }
      ],
      "stateMutability": "view",
      "type": "function"
    },
    {
      "inputs": [],
      "name": "name",
      "outputs": [
        {
          "internalType": "string",
          "name": "",
          "type": "string"
        }
      ],
      "stateMutability": "view",
      "type": "function"
    },
    {
      "inputs": [],
      "name": "owner",
      "outputs": [
        {
          "internalType": "address",
          "name": "",
          "type": "address"
        }
      ],
      "stateMutability": "view",
      "type": "function"
    },
    {
      "inputs": [
        {
          "internalType": "uint256",
          "name": "tokenId",
          "type": "uint256"
        }
      ],
      "name": "ownerOf",
      "outputs": [
        {
          "internalType": "address",
          "name": "",
          "type": "address"
        }
      ],
      "stateMutability": "view",
      "type": "function"
    },
    {
      "inputs": [],
      "name": "renounceOwnership",
      "outputs": [],
      "stateMutability": "nonpayable",
      "type": "function"
    },
    {
      "inputs": [
        {
          "internalType": "address",
          "name": "from",
          "type": "address"
        },
        {
          "internalType": "address",
          "name": "to",
          "type": "address"
        },
        {
          "internalType": "uint256",
          "name": "tokenId",
          "type": "uint256"
        }
      ],
      "name": "safeTransferFrom",
      "outputs": [],
      "stateMutability": "nonpayable",
      "type": "function"
    },
    {
      "inputs": [
        {
          "internalType": "address",
          "name": "from",
          "type": "address"
        },
        {
          "internalType": "address",
          "name": "to",
          "type": "address"
        },
        {
          "internalType": "uint256",
          "name": "tokenId",
          "type": "uint256"
        },
        {
          "internalType": "bytes",
          "name": "_data",
          "type": "bytes"
        }
      ],
      "name": "safeTransferFrom",
      "outputs": [],
      "stateMutability": "nonpayable",
      "type": "function"
    },
    {
      "inputs": [
        {
          "internalType": "address",
          "name": "operator",
          "type": "address"
        },
        {
          "internalType": "bool",
          "name": "approved",
          "type": "bool"
        }
      ],
      "name": "setApprovalForAll",
      "outputs": [],
      "stateMutability": "nonpayable",
      "type": "function"
    },
    {
      "inputs": [
        {
          "internalType": "bytes4",
          "name": "interfaceId",
          "type": "bytes4"
        }
      ],
      "name": "supportsInterface",
      "outputs": [
        {
          "internalType": "bool",
          "name": "",
          "type": "bool"
        }
      ],
      "stateMutability": "view",
      "type": "function"
    },
    {
      "inputs": [],
      "name": "symbol",
      "outputs": [
        {
          "internalType": "string",
          "name": "",
          "type": "string"
        }
      ],
      "stateMutability": "view",
      "type": "function"
    },
    {
      "inputs": [
        {
          "internalType": "uint256",
          "name": "tokenId",
          "type": "uint256"
        }
      ],
      "name": "tokenURI",
      "outputs": [
        {
          "internalType": "string",
          "name": "",
          "type": "string"
        }
      ],
      "stateMutability": "view",
      "type": "function"
    },
    {
      "inputs": [
        {
          "internalType": "address",
          "name": "from",
          "type": "address"
        },
        {
          "internalType": "address",
          "name": "to",
          "type": "address"
        },
        {
          "internalType": "uint256",
          "name": "tokenId",
          "type": "uint256"
        }
      ],
      "name": "transferFrom",
      "outputs": [],
      "stateMutability": "nonpayable",
      "type": "function"
    },
    {
      "inputs": [
        {
          "internalType": "address",
          "name": "newOwner",
          "type": "address"
        }
      ],
      "name": "transferOwnership",
      "outputs": [],
      "stateMutability": "nonpayable",
      "type": "function"
    },
    {
      "inputs": [
        {
          "internalType": "address",
          "name": "user",
          "type": "address"
        },
        {
          "internalType": "string",
          "name": "tokenURI",
          "type": "string"
        }
      ],
      "name": "safemint",
      "outputs": [],
      "stateMutability": "nonpayable",
      "type": "function"
    },
    {
      "inputs": [
        {
          "internalType": "uint256",
          "name": "tokenID",
          "type": "uint256"
        }
      ],
      "name": "burnToken",
      "outputs": [],
      "stateMutability": "nonpayable",
      "type": "function"
    }
  ],
  "bytecode": "0x60806040523480156200001157600080fd5b506040518060400160405280600781526020017f566f6c63616e6f000000000000000000000000000000000000000000000000008152506040518060400160405280600381526020017f56544e0000000000000000000000000000000000000000000000000000000000815250816000908051906020019062000096929190620001a6565b508060019080519060200190620000af929190620001a6565b505050620000d2620000c6620000d860201b60201c565b620000e060201b60201c565b620002bb565b600033905090565b6000600660009054906101000a900473ffffffffffffffffffffffffffffffffffffffff16905081600660006101000a81548173ffffffffffffffffffffffffffffffffffffffff021916908373ffffffffffffffffffffffffffffffffffffffff1602179055508173ffffffffffffffffffffffffffffffffffffffff168173ffffffffffffffffffffffffffffffffffffffff167f8be0079c531659141344cd1fd0a4f28419497f9722a3daafe3b4186f6b6457e060405160405180910390a35050565b828054620001b49062000256565b90600052602060002090601f016020900481019282620001d8576000855562000224565b82601f10620001f357805160ff191683800117855562000224565b8280016001018555821562000224579182015b828111156200022357825182559160200191906001019062000206565b5b50905062000233919062000237565b5090565b5b808211156200025257600081600090555060010162000238565b5090565b600060028204905060018216806200026f57607f821691505b602082108114156200028657620002856200028c565b5b50919050565b7f4e487b7100000000000000000000000000000000000000000000000000000000600052602260045260246000fd5b61316280620002cb6000396000f3fe608060405234801561001057600080fd5b50600436106101165760003560e01c80637b47ec1a116100a2578063b88d4fde11610071578063b88d4fde146102cb578063c1e4abc2146102e7578063c87b56dd14610303578063e985e9c514610333578063f2fde38b1461036357610116565b80637b47ec1a146102575780638da5cb5b1461027357806395d89b4114610291578063a22cb465146102af57610116565b806323b872dd116100e957806323b872dd146101b557806342842e0e146101d15780636352211e146101ed57806370a082311461021d578063715018a61461024d57610116565b806301ffc9a71461011b57806306fdde031461014b578063081812fc14610169578063095ea7b314610199575b600080fd5b610135600480360381019061013091906121c9565b61037f565b60405161014291906125f2565b60405180910390f35b610153610461565b604051610160919061260d565b60405180910390f35b610183600480360381019061017e919061221b565b6104f3565b604051610190919061258b565b60405180910390f35b6101b360048036038101906101ae919061218d565b610578565b005b6101cf60048036038101906101ca9190612033565b610690565b005b6101eb60048036038101906101e69190612033565b6106f0565b005b6102076004803603810190610202919061221b565b610710565b604051610214919061258b565b60405180910390f35b61023760048036038101906102329190611fce565b6107c2565b604051610244919061284f565b60405180910390f35b61025561087a565b005b610271600480360381019061026c919061221b565b610902565b005b61027b61098d565b604051610288919061258b565b60405180910390f35b6102996109b7565b6040516102a6919061260d565b60405180910390f35b6102c960048036038101906102c491906120fd565b610a49565b005b6102e560048036038101906102e09190612082565b610bca565b005b61030160048036038101906102fc9190612139565b610c2c565b005b61031d6004803603810190610318919061221b565b610cfd565b60405161032a919061260d565b60405180910390f35b61034d60048036038101906103489190611ff7565b610da4565b60405161035a91906125f2565b60405180910390f35b61037d60048036038101906103789190611fce565b610e38565b005b60007f80ac58cd000000000000000000000000000000000000000000000000000000007bffffffffffffffffffffffffffffffffffffffffffffffffffffffff1916827bffffffffffffffffffffffffffffffffffffffffffffffffffffffff1916148061044a57507f5b5e139f000000000000000000000000000000000000000000000000000000007bffffffffffffffffffffffffffffffffffffffffffffffffffffffff1916827bffffffffffffffffffffffffffffffffffffffffffffffffffffffff1916145b8061045a575061045982610f30565b5b9050919050565b60606000805461047090612aa5565b80601f016020809104026020016040519081016040528092919081815260200182805461049c90612aa5565b80156104e95780601f106104be576101008083540402835291602001916104e9565b820191906000526020600020905b8154815290600101906020018083116104cc57829003601f168201915b5050505050905090565b60006104fe82610f9a565b61053d576040517f08c379a00000000000000000000000000000000000000000000000000000000081526004016105349061276f565b60405180910390fd5b6004600083815260200190815260200160002060009054906101000a900473ffffffffffffffffffffffffffffffffffffffff169050919050565b600061058382610710565b90508073ffffffffffffffffffffffffffffffffffffffff168373ffffffffffffffffffffffffffffffffffffffff1614156105f4576040517f08c379a00000000000000000000000000000000000000000000000000000000081526004016105eb906127ef565b60405180910390fd5b8073ffffffffffffffffffffffffffffffffffffffff16610613611006565b73ffffffffffffffffffffffffffffffffffffffff16148061064257506106418161063c611006565b610da4565b5b610681576040517f08c379a0000000000000000000000000000000000000000000000000000000008152600401610678906126ef565b60405180910390fd5b61068b838361100e565b505050565b6106a161069b611006565b826110c7565b6106e0576040517f08c379a00000000000000000000000000000000000000000000000000000000081526004016106d79061280f565b60405180910390fd5b6106eb8383836111a5565b505050565b61070b83838360405180602001604052806000815250610bca565b505050565b6000806002600084815260200190815260200160002060009054906101000a900473ffffffffffffffffffffffffffffffffffffffff169050600073ffffffffffffffffffffffffffffffffffffffff168173ffffffffffffffffffffffffffffffffffffffff1614156107b9576040517f08c379a00000000000000000000000000000000000000000000000000000000081526004016107b09061272f565b60405180910390fd5b80915050919050565b60008073ffffffffffffffffffffffffffffffffffffffff168273ffffffffffffffffffffffffffffffffffffffff161415610833576040517f08c379a000000000000000000000000000000000000000000000000000000000815260040161082a9061270f565b60405180910390fd5b600360008373ffffffffffffffffffffffffffffffffffffffff1673ffffffffffffffffffffffffffffffffffffffff168152602001908152602001600020549050919050565b610882611006565b73ffffffffffffffffffffffffffffffffffffffff166108a061098d565b73ffffffffffffffffffffffffffffffffffffffff16146108f6576040517f08c379a00000000000000000000000000000000000000000000000000000000081526004016108ed9061278f565b60405180910390fd5b6109006000611401565b565b3373ffffffffffffffffffffffffffffffffffffffff1661092282610710565b73ffffffffffffffffffffffffffffffffffffffff1614610978576040517f08c379a000000000000000000000000000000000000000000000000000000000815260040161096f9061282f565b60405180910390fd5b610981816114c7565b61098a816115d8565b50565b6000600660009054906101000a900473ffffffffffffffffffffffffffffffffffffffff16905090565b6060600180546109c690612aa5565b80601f01602080910402602001604051908101604052809291908181526020018280546109f290612aa5565b8015610a3f5780601f10610a1457610100808354040283529160200191610a3f565b820191906000526020600020905b815481529060010190602001808311610a2257829003601f168201915b5050505050905090565b610a51611006565b73ffffffffffffffffffffffffffffffffffffffff168273ffffffffffffffffffffffffffffffffffffffff161415610abf576040517f08c379a0000000000000000000000000000000000000000000000000000000008152600401610ab6906126af565b60405180910390fd5b8060056000610acc611006565b73ffffffffffffffffffffffffffffffffffffffff1673ffffffffffffffffffffffffffffffffffffffff16815260200190815260200160002060008473ffffffffffffffffffffffffffffffffffffffff1673ffffffffffffffffffffffffffffffffffffffff16815260200190815260200160002060006101000a81548160ff0219169083151502179055508173ffffffffffffffffffffffffffffffffffffffff16610b79611006565b73ffffffffffffffffffffffffffffffffffffffff167f17307eab39ab6107e8899845ad3d59bd9653f200f220920489ca2b5937696c3183604051610bbe91906125f2565b60405180910390a35050565b610bdb610bd5611006565b836110c7565b610c1a576040517f08c379a0000000000000000000000000000000000000000000000000000000008152600401610c119061280f565b60405180910390fd5b610c2684848484611775565b50505050565b6000610c366117d1565b9050610c4283826117f8565b600860008473ffffffffffffffffffffffffffffffffffffffff1673ffffffffffffffffffffffffffffffffffffffff168152602001908152602001600020604051806060016040528083815260200142815260200184815250908060018154018082558091505060019003906000526020600020906003020160009091909190915060008201518160000155602082015181600101556040820151816002019080519060200190610cf5929190611db2565b505050505050565b6060610d0882610f9a565b610d47576040517f08c379a0000000000000000000000000000000000000000000000000000000008152600401610d3e906127cf565b60405180910390fd5b6000610d51611816565b90506000815111610d715760405180602001604052806000815250610d9c565b80610d7b8461182d565b604051602001610d8c929190612567565b6040516020818303038152906040525b915050919050565b6000600560008473ffffffffffffffffffffffffffffffffffffffff1673ffffffffffffffffffffffffffffffffffffffff16815260200190815260200160002060008373ffffffffffffffffffffffffffffffffffffffff1673ffffffffffffffffffffffffffffffffffffffff16815260200190815260200160002060009054906101000a900460ff16905092915050565b610e40611006565b73ffffffffffffffffffffffffffffffffffffffff16610e5e61098d565b73ffffffffffffffffffffffffffffffffffffffff1614610eb4576040517f08c379a0000000000000000000000000000000000000000000000000000000008152600401610eab9061278f565b60405180910390fd5b600073ffffffffffffffffffffffffffffffffffffffff168173ffffffffffffffffffffffffffffffffffffffff161415610f24576040517f08c379a0000000000000000000000000000000000000000000000000000000008152600401610f1b9061264f565b60405180910390fd5b610f2d81611401565b50565b60007f01ffc9a7000000000000000000000000000000000000000000000000000000007bffffffffffffffffffffffffffffffffffffffffffffffffffffffff1916827bffffffffffffffffffffffffffffffffffffffffffffffffffffffff1916149050919050565b60008073ffffffffffffffffffffffffffffffffffffffff166002600084815260200190815260200160002060009054906101000a900473ffffffffffffffffffffffffffffffffffffffff1673ffffffffffffffffffffffffffffffffffffffff1614159050919050565b600033905090565b816004600083815260200190815260200160002060006101000a81548173ffffffffffffffffffffffffffffffffffffffff021916908373ffffffffffffffffffffffffffffffffffffffff160217905550808273ffffffffffffffffffffffffffffffffffffffff1661108183610710565b73ffffffffffffffffffffffffffffffffffffffff167f8c5be1e5ebec7d5bd14f71427d1e84f3dd0314c0f7b2291e5b200ac8c7c3b92560405160405180910390a45050565b60006110d282610f9a565b611111576040517f08c379a0000000000000000000000000000000000000000000000000000000008152600401611108906126cf565b60405180910390fd5b600061111c83610710565b90508073ffffffffffffffffffffffffffffffffffffffff168473ffffffffffffffffffffffffffffffffffffffff16148061118b57508373ffffffffffffffffffffffffffffffffffffffff16611173846104f3565b73ffffffffffffffffffffffffffffffffffffffff16145b8061119c575061119b8185610da4565b5b91505092915050565b8273ffffffffffffffffffffffffffffffffffffffff166111c582610710565b73ffffffffffffffffffffffffffffffffffffffff161461121b576040517f08c379a0000000000000000000000000000000000000000000000000000000008152600401611212906127af565b60405180910390fd5b600073ffffffffffffffffffffffffffffffffffffffff168273ffffffffffffffffffffffffffffffffffffffff16141561128b576040517f08c379a00000000000000000000000000000000000000000000000000000000081526004016112829061268f565b60405180910390fd5b6112968383836119da565b6112a160008261100e565b6001600360008573ffffffffffffffffffffffffffffffffffffffff1673ffffffffffffffffffffffffffffffffffffffff16815260200190815260200160002060008282546112f191906129bb565b925050819055506001600360008473ffffffffffffffffffffffffffffffffffffffff1673ffffffffffffffffffffffffffffffffffffffff16815260200190815260200160002060008282546113489190612934565b92505081905550816002600083815260200190815260200160002060006101000a81548173ffffffffffffffffffffffffffffffffffffffff021916908373ffffffffffffffffffffffffffffffffffffffff160217905550808273ffffffffffffffffffffffffffffffffffffffff168473ffffffffffffffffffffffffffffffffffffffff167fddf252ad1be2c89b69c2b068fc378daa952ba7f163c4a11628f55a4df523b3ef60405160405180910390a4505050565b6000600660009054906101000a900473ffffffffffffffffffffffffffffffffffffffff16905081600660006101000a81548173ffffffffffffffffffffffffffffffffffffffff021916908373ffffffffffffffffffffffffffffffffffffffff1602179055508173ffffffffffffffffffffffffffffffffffffffff168173ffffffffffffffffffffffffffffffffffffffff167f8be0079c531659141344cd1fd0a4f28419497f9722a3daafe3b4186f6b6457e060405160405180910390a35050565b60006114d282610710565b90506114e0816000846119da565b6114eb60008361100e565b6001600360008373ffffffffffffffffffffffffffffffffffffffff1673ffffffffffffffffffffffffffffffffffffffff168152602001908152602001600020600082825461153b91906129bb565b925050819055506002600083815260200190815260200160002060006101000a81549073ffffffffffffffffffffffffffffffffffffffff021916905581600073ffffffffffffffffffffffffffffffffffffffff168273ffffffffffffffffffffffffffffffffffffffff167fddf252ad1be2c89b69c2b068fc378daa952ba7f163c4a11628f55a4df523b3ef60405160405180910390a45050565b60005b600860003373ffffffffffffffffffffffffffffffffffffffff1673ffffffffffffffffffffffffffffffffffffffff168152602001908152602001600020805490508110156117715781600860003373ffffffffffffffffffffffffffffffffffffffff1673ffffffffffffffffffffffffffffffffffffffff168152602001908152602001600020828154811061169d577f4e487b7100000000000000000000000000000000000000000000000000000000600052603260045260246000fd5b906000526020600020906003020160000154141561175e57600860003373ffffffffffffffffffffffffffffffffffffffff1673ffffffffffffffffffffffffffffffffffffffff168152602001908152602001600020818154811061172c577f4e487b7100000000000000000000000000000000000000000000000000000000600052603260045260246000fd5b9060005260206000209060030201600080820160009055600182016000905560028201600061175b9190611e38565b50505b808061176990612b08565b9150506115db565b5050565b6117808484846111a5565b61178c848484846119df565b6117cb576040517f08c379a00000000000000000000000000000000000000000000000000000000081526004016117c29061262f565b60405180910390fd5b50505050565b6000806007549050600760008154809291906117ec90612b08565b91905055508091505090565b611812828260405180602001604052806000815250611b76565b5050565b606060405180602001604052806000815250905090565b60606000821415611875576040518060400160405280600181526020017f300000000000000000000000000000000000000000000000000000000000000081525090506119d5565b600082905060005b600082146118a757808061189090612b08565b915050600a826118a0919061298a565b915061187d565b60008167ffffffffffffffff8111156118e9577f4e487b7100000000000000000000000000000000000000000000000000000000600052604160045260246000fd5b6040519080825280601f01601f19166020018201604052801561191b5781602001600182028036833780820191505090505b5090505b600085146119ce5760018261193491906129bb565b9150600a856119439190612b51565b603061194f9190612934565b60f81b81838151811061198b577f4e487b7100000000000000000000000000000000000000000000000000000000600052603260045260246000fd5b60200101907effffffffffffffffffffffffffffffffffffffffffffffffffffffffffffff1916908160001a905350600a856119c7919061298a565b945061191f565b8093505050505b919050565b505050565b6000611a008473ffffffffffffffffffffffffffffffffffffffff16611bd1565b15611b69578373ffffffffffffffffffffffffffffffffffffffff1663150b7a02611a29611006565b8786866040518563ffffffff1660e01b8152600401611a4b94939291906125a6565b602060405180830381600087803b158015611a6557600080fd5b505af1925050508015611a9657506040513d601f19601f82011682018060405250810190611a9391906121f2565b60015b611b19573d8060008114611ac6576040519150601f19603f3d011682016040523d82523d6000602084013e611acb565b606091505b50600081511415611b11576040517f08c379a0000000000000000000000000000000000000000000000000000000008152600401611b089061262f565b60405180910390fd5b805181602001fd5b63150b7a0260e01b7bffffffffffffffffffffffffffffffffffffffffffffffffffffffff1916817bffffffffffffffffffffffffffffffffffffffffffffffffffffffff191614915050611b6e565b600190505b949350505050565b611b808383611be4565b611b8d60008484846119df565b611bcc576040517f08c379a0000000000000000000000000000000000000000000000000000000008152600401611bc39061262f565b60405180910390fd5b505050565b600080823b905060008111915050919050565b600073ffffffffffffffffffffffffffffffffffffffff168273ffffffffffffffffffffffffffffffffffffffff161415611c54576040517f08c379a0000000000000000000000000000000000000000000000000000000008152600401611c4b9061274f565b60405180910390fd5b611c5d81610f9a565b15611c9d576040517f08c379a0000000000000000000000000000000000000000000000000000000008152600401611c949061266f565b60405180910390fd5b611ca9600083836119da565b6001600360008473ffffffffffffffffffffffffffffffffffffffff1673ffffffffffffffffffffffffffffffffffffffff1681526020019081526020016000206000828254611cf99190612934565b92505081905550816002600083815260200190815260200160002060006101000a81548173ffffffffffffffffffffffffffffffffffffffff021916908373ffffffffffffffffffffffffffffffffffffffff160217905550808273ffffffffffffffffffffffffffffffffffffffff16600073ffffffffffffffffffffffffffffffffffffffff167fddf252ad1be2c89b69c2b068fc378daa952ba7f163c4a11628f55a4df523b3ef60405160405180910390a45050565b828054611dbe90612aa5565b90600052602060002090601f016020900481019282611de05760008555611e27565b82601f10611df957805160ff1916838001178555611e27565b82800160010185558215611e27579182015b82811115611e26578251825591602001919060010190611e0b565b5b509050611e349190611e78565b5090565b508054611e4490612aa5565b6000825580601f10611e565750611e75565b601f016020900490600052602060002090810190611e749190611e78565b5b50565b5b80821115611e91576000816000905550600101611e79565b5090565b6000611ea8611ea38461288f565b61286a565b905082815260208101848484011115611ec057600080fd5b611ecb848285612a63565b509392505050565b6000611ee6611ee1846128c0565b61286a565b905082815260208101848484011115611efe57600080fd5b611f09848285612a63565b509392505050565b600081359050611f20816130d0565b92915050565b600081359050611f35816130e7565b92915050565b600081359050611f4a816130fe565b92915050565b600081519050611f5f816130fe565b92915050565b600082601f830112611f7657600080fd5b8135611f86848260208601611e95565b91505092915050565b600082601f830112611fa057600080fd5b8135611fb0848260208601611ed3565b91505092915050565b600081359050611fc881613115565b92915050565b600060208284031215611fe057600080fd5b6000611fee84828501611f11565b91505092915050565b6000806040838503121561200a57600080fd5b600061201885828601611f11565b925050602061202985828601611f11565b9150509250929050565b60008060006060848603121561204857600080fd5b600061205686828701611f11565b935050602061206786828701611f11565b925050604061207886828701611fb9565b9150509250925092565b6000806000806080858703121561209857600080fd5b60006120a687828801611f11565b94505060206120b787828801611f11565b93505060406120c887828801611fb9565b925050606085013567ffffffffffffffff8111156120e557600080fd5b6120f187828801611f65565b91505092959194509250565b6000806040838503121561211057600080fd5b600061211e85828601611f11565b925050602061212f85828601611f26565b9150509250929050565b6000806040838503121561214c57600080fd5b600061215a85828601611f11565b925050602083013567ffffffffffffffff81111561217757600080fd5b61218385828601611f8f565b9150509250929050565b600080604083850312156121a057600080fd5b60006121ae85828601611f11565b92505060206121bf85828601611fb9565b9150509250929050565b6000602082840312156121db57600080fd5b60006121e984828501611f3b565b91505092915050565b60006020828403121561220457600080fd5b600061221284828501611f50565b91505092915050565b60006020828403121561222d57600080fd5b600061223b84828501611fb9565b91505092915050565b61224d816129ef565b82525050565b61225c81612a01565b82525050565b600061226d826128f1565b6122778185612907565b9350612287818560208601612a72565b61229081612c3e565b840191505092915050565b60006122a6826128fc565b6122b08185612918565b93506122c0818560208601612a72565b6122c981612c3e565b840191505092915050565b60006122df826128fc565b6122e98185612929565b93506122f9818560208601612a72565b80840191505092915050565b6000612312603283612918565b915061231d82612c4f565b604082019050919050565b6000612335602683612918565b915061234082612c9e565b604082019050919050565b6000612358601c83612918565b915061236382612ced565b602082019050919050565b600061237b602483612918565b915061238682612d16565b604082019050919050565b600061239e601983612918565b91506123a982612d65565b602082019050919050565b60006123c1602c83612918565b91506123cc82612d8e565b604082019050919050565b60006123e4603883612918565b91506123ef82612ddd565b604082019050919050565b6000612407602a83612918565b915061241282612e2c565b604082019050919050565b600061242a602983612918565b915061243582612e7b565b604082019050919050565b600061244d602083612918565b915061245882612eca565b602082019050919050565b6000612470602c83612918565b915061247b82612ef3565b604082019050919050565b6000612493602083612918565b915061249e82612f42565b602082019050919050565b60006124b6602983612918565b91506124c182612f6b565b604082019050919050565b60006124d9602f83612918565b91506124e482612fba565b604082019050919050565b60006124fc602183612918565b915061250782613009565b604082019050919050565b600061251f603183612918565b915061252a82613058565b604082019050919050565b6000612542601683612918565b915061254d826130a7565b602082019050919050565b61256181612a59565b82525050565b600061257382856122d4565b915061257f82846122d4565b91508190509392505050565b60006020820190506125a06000830184612244565b92915050565b60006080820190506125bb6000830187612244565b6125c86020830186612244565b6125d56040830185612558565b81810360608301526125e78184612262565b905095945050505050565b60006020820190506126076000830184612253565b92915050565b60006020820190508181036000830152612627818461229b565b905092915050565b6000602082019050818103600083015261264881612305565b9050919050565b6000602082019050818103600083015261266881612328565b9050919050565b600060208201905081810360008301526126888161234b565b9050919050565b600060208201905081810360008301526126a88161236e565b9050919050565b600060208201905081810360008301526126c881612391565b9050919050565b600060208201905081810360008301526126e8816123b4565b9050919050565b60006020820190508181036000830152612708816123d7565b9050919050565b60006020820190508181036000830152612728816123fa565b9050919050565b600060208201905081810360008301526127488161241d565b9050919050565b6000602082019050818103600083015261276881612440565b9050919050565b6000602082019050818103600083015261278881612463565b9050919050565b600060208201905081810360008301526127a881612486565b9050919050565b600060208201905081810360008301526127c8816124a9565b9050919050565b600060208201905081810360008301526127e8816124cc565b9050919050565b60006020820190508181036000830152612808816124ef565b9050919050565b6000602082019050818103600083015261282881612512565b9050919050565b6000602082019050818103600083015261284881612535565b9050919050565b60006020820190506128646000830184612558565b92915050565b6000612874612885565b90506128808282612ad7565b919050565b6000604051905090565b600067ffffffffffffffff8211156128aa576128a9612c0f565b5b6128b382612c3e565b9050602081019050919050565b600067ffffffffffffffff8211156128db576128da612c0f565b5b6128e482612c3e565b9050602081019050919050565b600081519050919050565b600081519050919050565b600082825260208201905092915050565b600082825260208201905092915050565b600081905092915050565b600061293f82612a59565b915061294a83612a59565b9250827fffffffffffffffffffffffffffffffffffffffffffffffffffffffffffffffff0382111561297f5761297e612b82565b5b828201905092915050565b600061299582612a59565b91506129a083612a59565b9250826129b0576129af612bb1565b5b828204905092915050565b60006129c682612a59565b91506129d183612a59565b9250828210156129e4576129e3612b82565b5b828203905092915050565b60006129fa82612a39565b9050919050565b60008115159050919050565b60007fffffffff0000000000000000000000000000000000000000000000000000000082169050919050565b600073ffffffffffffffffffffffffffffffffffffffff82169050919050565b6000819050919050565b82818337600083830152505050565b60005b83811015612a90578082015181840152602081019050612a75565b83811115612a9f576000848401525b50505050565b60006002820490506001821680612abd57607f821691505b60208210811415612ad157612ad0612be0565b5b50919050565b612ae082612c3e565b810181811067ffffffffffffffff82111715612aff57612afe612c0f565b5b80604052505050565b6000612b1382612a59565b91507fffffffffffffffffffffffffffffffffffffffffffffffffffffffffffffffff821415612b4657612b45612b82565b5b600182019050919050565b6000612b5c82612a59565b9150612b6783612a59565b925082612b7757612b76612bb1565b5b828206905092915050565b7f4e487b7100000000000000000000000000000000000000000000000000000000600052601160045260246000fd5b7f4e487b7100000000000000000000000000000000000000000000000000000000600052601260045260246000fd5b7f4e487b7100000000000000000000000000000000000000000000000000000000600052602260045260246000fd5b7f4e487b7100000000000000000000000000000000000000000000000000000000600052604160045260246000fd5b6000601f19601f8301169050919050565b7f4552433732313a207472616e7366657220746f206e6f6e20455243373231526560008201527f63656976657220696d706c656d656e7465720000000000000000000000000000602082015250565b7f4f776e61626c653a206e6577206f776e657220697320746865207a65726f206160008201527f6464726573730000000000000000000000000000000000000000000000000000602082015250565b7f4552433732313a20746f6b656e20616c7265616479206d696e74656400000000600082015250565b7f4552433732313a207472616e7366657220746f20746865207a65726f2061646460008201527f7265737300000000000000000000000000000000000000000000000000000000602082015250565b7f4552433732313a20617070726f766520746f2063616c6c657200000000000000600082015250565b7f4552433732313a206f70657261746f7220717565727920666f72206e6f6e657860008201527f697374656e7420746f6b656e0000000000000000000000000000000000000000602082015250565b7f4552433732313a20617070726f76652063616c6c6572206973206e6f74206f7760008201527f6e6572206e6f7220617070726f76656420666f7220616c6c0000000000000000602082015250565b7f4552433732313a2062616c616e636520717565727920666f7220746865207a6560008201527f726f206164647265737300000000000000000000000000000000000000000000602082015250565b7f4552433732313a206f776e657220717565727920666f72206e6f6e657869737460008201527f656e7420746f6b656e0000000000000000000000000000000000000000000000602082015250565b7f4552433732313a206d696e7420746f20746865207a65726f2061646472657373600082015250565b7f4552433732313a20617070726f76656420717565727920666f72206e6f6e657860008201527f697374656e7420746f6b656e0000000000000000000000000000000000000000602082015250565b7f4f776e61626c653a2063616c6c6572206973206e6f7420746865206f776e6572600082015250565b7f4552433732313a207472616e73666572206f6620746f6b656e2074686174206960008201527f73206e6f74206f776e0000000000000000000000000000000000000000000000602082015250565b7f4552433732314d657461646174613a2055524920717565727920666f72206e6f60008201527f6e6578697374656e7420746f6b656e0000000000000000000000000000000000602082015250565b7f4552433732313a20617070726f76616c20746f2063757272656e74206f776e6560008201527f7200000000000000000000000000000000000000000000000000000000000000602082015250565b7f4552433732313a207472616e736665722063616c6c6572206973206e6f74206f60008201527f776e6572206e6f7220617070726f766564000000000000000000000000000000602082015250565b7f4f6e6c79206f776e65722069732020616c6c6f77656400000000000000000000600082015250565b6130d9816129ef565b81146130e457600080fd5b50565b6130f081612a01565b81146130fb57600080fd5b50565b61310781612a0d565b811461311257600080fd5b50565b61311e81612a59565b811461312957600080fd5b5056fea26469706673582212209c20a1a50db155d78e31f1dd54f2038164ea2cb16d5c0f454c440709ab82526864736f6c63430008040033",
  "immutableReferences": {},
  "source": "//SPDX-License-Identifier: UNLICENSED\npragma solidity ^0.8.0;\n\nimport \"@openzeppelin/contracts/access/Ownable.sol\";\nimport \"@openzeppelin/contracts/token/ERC721/ERC721.sol\";\n\ncontract VolcanoToken is ERC721(\"Volcano\",\"VTN\"), Ownable{\n    uint256 tokenID;\n    \n    \n    struct Metadata{\n        uint256 tokenID;\n        uint256 timestamp;\n        string tokenURI;\n    }\n    \n    mapping(address => Metadata[]) tokenOwners;\n    \n     function getTokenID() internal returns (uint256) {\n        uint256 newTokenID = tokenID;\n        tokenID++;\n        return newTokenID;\n    }\n    \n       function purgeMetadata(uint256 tokenID) internal {\n       for(uint256 i=0; i<tokenOwners[msg.sender].length; i++) {\n            if(tokenOwners[msg.sender][i].tokenID == tokenID) {\n                delete tokenOwners[msg.sender][i];\n            }\n        }\n    }\n\n    function safemint(address user, string memory tokenURI) public {\n        uint256 tokenID = getTokenID();\n        _safeMint(user, tokenID);\n\n        tokenOwners[user].push(\n            Metadata({timestamp: block.timestamp, tokenID: tokenID, tokenURI: tokenURI})\n        );\n    }\n\n    function burnToken(uint256 tokenID) public {\n        require(ownerOf(tokenID) == msg.sender, \"Only owner is  allowed\");\n        _burn(tokenID);\n        purgeMetadata(tokenID);\n    }\n\n \n    \n}",
  "sourcePath": "/Users/shankarraomata/Documents/encode/truffle/exercise_3/truffleintroduction/contracts/VolcanoToken.sol",
  "compiler": {
    "name": "solc",
    "version": "0.8.4+commit.c7e474f2.Emscripten.clang"
  },
  "schemaVersion": "3.4.3",
  "updatedAt": "2021-09-15T04:15:16.857Z",
  "devdoc": {
    "kind": "dev",
    "methods": {
      "approve(address,uint256)": {
        "details": "See {IERC721-approve}."
      },
      "balanceOf(address)": {
        "details": "See {IERC721-balanceOf}."
      },
      "getApproved(uint256)": {
        "details": "See {IERC721-getApproved}."
      },
      "isApprovedForAll(address,address)": {
        "details": "See {IERC721-isApprovedForAll}."
      },
      "name()": {
        "details": "See {IERC721Metadata-name}."
      },
      "owner()": {
        "details": "Returns the address of the current owner."
      },
      "ownerOf(uint256)": {
        "details": "See {IERC721-ownerOf}."
      },
      "renounceOwnership()": {
        "details": "Leaves the contract without owner. It will not be possible to call `onlyOwner` functions anymore. Can only be called by the current owner. NOTE: Renouncing ownership will leave the contract without an owner, thereby removing any functionality that is only available to the owner."
      },
      "safeTransferFrom(address,address,uint256)": {
        "details": "See {IERC721-safeTransferFrom}."
      },
      "safeTransferFrom(address,address,uint256,bytes)": {
        "details": "See {IERC721-safeTransferFrom}."
      },
      "setApprovalForAll(address,bool)": {
        "details": "See {IERC721-setApprovalForAll}."
      },
      "supportsInterface(bytes4)": {
        "details": "See {IERC165-supportsInterface}."
      },
      "symbol()": {
        "details": "See {IERC721Metadata-symbol}."
      },
      "tokenURI(uint256)": {
        "details": "See {IERC721Metadata-tokenURI}."
      },
      "transferFrom(address,address,uint256)": {
        "details": "See {IERC721-transferFrom}."
      },
      "transferOwnership(address)": {
        "details": "Transfers ownership of the contract to a new account (`newOwner`). Can only be called by the current owner."
      }
    },
    "version": 1
  },
  "userdoc": {
    "kind": "user",
    "methods": {},
    "version": 1
  }
}